{
  "_format": "hh-sol-artifact-1",
  "contractName": "FileLogger",
  "sourceName": "contracts/FileLogger.sol",
  "abi": [
    {
      "anonymous": false,
      "inputs": [
        {
          "indexed": true,
          "internalType": "bytes32",
          "name": "fileHash",
          "type": "bytes32"
        },
        {
          "indexed": true,
          "internalType": "address",
          "name": "uploader",
          "type": "address"
        },
        {
          "indexed": false,
          "internalType": "uint256",
          "name": "timestamp",
          "type": "uint256"
        }
      ],
      "name": "FileUploaded",
      "type": "event"
    },
    {
      "inputs": [
        {
          "internalType": "bytes32",
          "name": "",
          "type": "bytes32"
        }
      ],
      "name": "files",
      "outputs": [
        {
          "internalType": "address",
          "name": "uploader",
          "type": "address"
        },
        {
          "internalType": "uint256",
          "name": "timestamp",
          "type": "uint256"
        }
      ],
      "stateMutability": "view",
      "type": "function"
    },
    {
      "inputs": [
        {
          "internalType": "bytes32",
          "name": "fileHash",
          "type": "bytes32"
        }
      ],
      "name": "getFile",
      "outputs": [
        {
          "internalType": "address",
          "name": "",
          "type": "address"
        },
        {
          "internalType": "uint256",
          "name": "",
          "type": "uint256"
        }
      ],
      "stateMutability": "view",
      "type": "function"
    },
    {
      "inputs": [
        {
          "internalType": "bytes32",
          "name": "fileHash",
          "type": "bytes32"
        }
      ],
      "name": "uploadFileHash",
      "outputs": [],
      "stateMutability": "nonpayable",
      "type": "function"
    }
  ],
  "bytecode": "0x608060405234801561001057600080fd5b50610494806100206000396000f3fe608060405234801561001057600080fd5b50600436106100415760003560e01c8063473aa2a51461004657806349779de11461007757806398c9adff14610093575b600080fd5b610060600480360381019061005b9190610316565b6100c4565b60405161006e92919061039d565b60405180910390f35b610091600480360381019061008c9190610316565b61015c565b005b6100ad60048036038101906100a89190610316565b610297565b6040516100bb92919061039d565b60405180910390f35b60008060008060008581526020019081526020016000206040518060400160405290816000820160009054906101000a900473ffffffffffffffffffffffffffffffffffffffff1673ffffffffffffffffffffffffffffffffffffffff1673ffffffffffffffffffffffffffffffffffffffff1681526020016001820154815250509050806000015181602001519250925050915091565b600080600083815260200190815260200160002060010154146101b4576040517f08c379a00000000000000000000000000000000000000000000000000000000081526004016101ab90610423565b60405180910390fd5b60405180604001604052803373ffffffffffffffffffffffffffffffffffffffff1681526020014281525060008083815260200190815260200160002060008201518160000160006101000a81548173ffffffffffffffffffffffffffffffffffffffff021916908373ffffffffffffffffffffffffffffffffffffffff160217905550602082015181600101559050503373ffffffffffffffffffffffffffffffffffffffff16817fec5b0fb96b721769d24b11776516c6ace293db81d43459eca4486b56b6f91cb34260405161028c9190610443565b60405180910390a350565b60006020528060005260406000206000915090508060000160009054906101000a900473ffffffffffffffffffffffffffffffffffffffff16908060010154905082565b600080fd5b6000819050919050565b6102f3816102e0565b81146102fe57600080fd5b50565b600081359050610310816102ea565b92915050565b60006020828403121561032c5761032b6102db565b5b600061033a84828501610301565b91505092915050565b600073ffffffffffffffffffffffffffffffffffffffff82169050919050565b600061036e82610343565b9050919050565b61037e81610363565b82525050565b6000819050919050565b61039781610384565b82525050565b60006040820190506103b26000830185610375565b6103bf602083018461038e565b9392505050565b600082825260208201905092915050565b7f416c72656164792075706c6f6164656400000000000000000000000000000000600082015250565b600061040d6010836103c6565b9150610418826103d7565b602082019050919050565b6000602082019050818103600083015261043c81610400565b9050919050565b6000602082019050610458600083018461038e565b9291505056fea2646970667358221220a7c526b3196ff51a69805d04906c4b5f9bedbb097921670de508898771e0403d64736f6c63430008140033",
  "linkReferences": {},
  "deployedLinkReferences": {}
}